{
  "contractName": "articleManager",
  "abi": [
    {
      "anonymous": false,
      "inputs": [
        {
          "indexed": false,
          "name": "serialNumber",
          "type": "uint256"
        }
      ],
      "name": "articleUploaded",
      "type": "event"
    },
    {
      "constant": false,
      "inputs": [
        {
          "name": "_html",
          "type": "string"
        }
      ],
      "name": "uploadArticle",
      "outputs": [],
      "payable": false,
      "stateMutability": "nonpayable",
      "type": "function"
    },
    {
      "constant": true,
      "inputs": [
        {
          "name": "_serialNumber",
          "type": "uint256"
        }
      ],
      "name": "getArticle",
      "outputs": [
        {
          "name": "owner",
          "type": "address"
        },
        {
          "name": "html",
          "type": "string"
        }
      ],
      "payable": false,
      "stateMutability": "view",
      "type": "function"
    },
    {
      "constant": true,
      "inputs": [],
      "name": "getArticlesCount",
      "outputs": [
        {
          "name": "",
          "type": "uint256"
        }
      ],
      "payable": false,
      "stateMutability": "view",
      "type": "function"
    },
    {
      "constant": false,
      "inputs": [
        {
          "name": "_serialNumber",
          "type": "uint256"
        },
        {
          "name": "_value",
          "type": "uint256"
        }
      ],
      "name": "transferToken",
      "outputs": [],
      "payable": true,
      "stateMutability": "payable",
      "type": "function"
    }
  ],
  "bytecode": "0x608060405234801561001057600080fd5b506106cf806100206000396000f300608060405260043610610062576000357c0100000000000000000000000000000000000000000000000000000000900463ffffffff1680632e7607461461006757806351f7110414610091578063bd85d867146100bc578063f43f51bf14610195575b600080fd5b61008f60048036038101908080359060200190929190803590602001909291905050506101fe565b005b34801561009d57600080fd5b506100a6610321565b6040518082815260200191505060405180910390f35b3480156100c857600080fd5b506100e76004803603810190808035906020019092919050505061032d565b604051808373ffffffffffffffffffffffffffffffffffffffff1673ffffffffffffffffffffffffffffffffffffffff16815260200180602001828103825283818151815260200191508051906020019080838360005b8381101561015957808201518184015260208101905061013e565b50505050905090810190601f1680156101865780820380516001836020036101000a031916815260200191505b50935050505060405180910390f35b3480156101a157600080fd5b506101fc600480360381019080803590602001908201803590602001908080601f01602080910402602001604051908101604052809392919081815260200183838082843782019150505050505091929192905050506104b2565b005b60008280600011158015610216575060008054905081105b151561022157600080fd5b823073ffffffffffffffffffffffffffffffffffffffff16311015151561024757600080fd5b823414151561025557600080fd5b60008481548110151561026457fe5b906000526020600020906003020160010160009054906101000a900473ffffffffffffffffffffffffffffffffffffffff169150600073ffffffffffffffffffffffffffffffffffffffff168273ffffffffffffffffffffffffffffffffffffffff16141515156102d457600080fd5b8173ffffffffffffffffffffffffffffffffffffffff166108fc849081150290604051600060405180830381858888f1935050505015801561031a573d6000803e3d6000fd5b5050505050565b60008080549050905090565b600060606103396105c6565b838060001115801561034f575060008054905081105b151561035a57600080fd5b8460008054905011151561036d57600080fd5b60008581548110151561037c57fe5b906000526020600020906003020160606040519081016040529081600082015481526020016001820160009054906101000a900473ffffffffffffffffffffffffffffffffffffffff1673ffffffffffffffffffffffffffffffffffffffff1673ffffffffffffffffffffffffffffffffffffffff168152602001600282018054600181600116156101000203166002900480601f01602080910402602001604051908101604052809291908181526020018280546001816001161561010002031660029004801561048f5780601f106104645761010080835404028352916020019161048f565b820191906000526020600020905b81548152906001019060200180831161047257829003601f168201915b505050505081525050915081602001518260400151809050935093505050915091565b600060606040519081016040528060008054905081526020013373ffffffffffffffffffffffffffffffffffffffff16815260200183815250908060018154018082558091505090600182039060005260206000209060030201600090919290919091506000820151816000015560208201518160010160006101000a81548173ffffffffffffffffffffffffffffffffffffffff021916908373ffffffffffffffffffffffffffffffffffffffff16021790555060408201518160020190805190602001906105839291906105fe565b505050507f36c4915a642e07267838a17bfeb9ff08b076265638fc0e54e79e5af6929ac4c46000805490506040518082815260200191505060405180910390a150565b60606040519081016040528060008152602001600073ffffffffffffffffffffffffffffffffffffffff168152602001606081525090565b828054600181600116156101000203166002900490600052602060002090601f016020900481019282601f1061063f57805160ff191683800117855561066d565b8280016001018555821561066d579182015b8281111561066c578251825591602001919060010190610651565b5b50905061067a919061067e565b5090565b6106a091905b8082111561069c576000816000905550600101610684565b5090565b905600a165627a7a72305820842104e3f9dc0256bb7ea7be1ff10045a25ed0ae05f8ddf6c4cbf27950b3c4740029",
  "source": "// SPDX-License-Identifier: MIT\r\npragma solidity >=0.4.22 <0.9.0;\r\ncontract articleManager{\r\n    struct Article{\r\n        uint256 serialNumber;\r\n        address owner;\r\n        string html;\r\n    }\r\n    \r\n    Article[] private articles;\r\n    \r\n    event articleUploaded(uint256 serialNumber);\r\n\r\n    modifier isRightSerial(uint _serialNumber){\r\n        require(0<=_serialNumber&&_serialNumber<articles.length);\r\n        _;\r\n    }\r\n\r\n    function uploadArticle(string memory _html)public{\r\n        articles.push(Article(articles.length,msg.sender,_html));\r\n        \r\n        emit articleUploaded(articles.length);\r\n    }\r\n    \r\n    function getArticle(uint256 _serialNumber)public view isRightSerial(_serialNumber)\r\n    returns(address owner,string memory html)\r\n    {\r\n        require(articles.length>_serialNumber);\r\n        Article memory _article=articles[_serialNumber];\r\n        return (_article.owner,_article.html);\r\n    }\r\n    function getArticlesCount()public view returns(uint){\r\n        return articles.length;\r\n    }\r\n\r\n    function transferToken(uint _serialNumber,uint _value)external payable\r\n    isRightSerial(_serialNumber)\r\n    {\r\n        require(address(this).balance >= _value);\r\n        require(msg.value == _value);\r\n        address _recipient= articles[_serialNumber].owner;\r\n        require(_recipient!=address(0));\r\n        _recipient.transfer(_value);\r\n        \r\n    }\r\n    \r\n}",
  "sourcePath": "C:\\Users\\LG\\Desktop\\KlayArticle\\contracts\\ArticleManager.sol",
  "compiler": {
    "name": "solc",
    "version": "0.4.25+commit.59dbf8f1.Emscripten.clang"
  },
  "schemaVersion": "2.0.2",
  "updatedAt": "2021-02-01T03:29:16.138Z"
}