{
  "contractName": "articleManager",
  "abi": [
    {
      "anonymous": false,
      "inputs": [
        {
          "indexed": false,
          "name": "serialNumber",
          "type": "uint256"
        }
      ],
      "name": "articleUploaded",
      "type": "event"
    },
    {
      "constant": false,
      "inputs": [
        {
          "name": "_html",
          "type": "string"
        }
      ],
      "name": "uploadArticle",
      "outputs": [],
      "payable": false,
      "stateMutability": "nonpayable",
      "type": "function"
    },
    {
      "constant": true,
      "inputs": [
        {
          "name": "_serialNumber",
          "type": "uint256"
        }
      ],
      "name": "getArticle",
      "outputs": [
        {
          "name": "owner",
          "type": "address"
        },
        {
          "name": "html",
          "type": "string"
        }
      ],
      "payable": false,
      "stateMutability": "view",
      "type": "function"
    },
    {
      "constant": true,
      "inputs": [],
      "name": "getArticlesCount",
      "outputs": [
        {
          "name": "",
          "type": "uint256"
        }
      ],
      "payable": false,
      "stateMutability": "view",
      "type": "function"
    },
    {
      "constant": true,
      "inputs": [
        {
          "name": "_serialNumber",
          "type": "uint256"
        }
      ],
      "name": "getArticleOwner",
      "outputs": [
        {
          "name": "",
          "type": "address"
        }
      ],
      "payable": false,
      "stateMutability": "view",
      "type": "function"
    }
  ],
  "bytecode": "0x608060405234801561001057600080fd5b50610638806100206000396000f300608060405260043610610062576000357c0100000000000000000000000000000000000000000000000000000000900463ffffffff16806351f7110414610067578063647f628314610092578063bd85d867146100ff578063f43f51bf146101d8575b600080fd5b34801561007357600080fd5b5061007c610241565b6040518082815260200191505060405180910390f35b34801561009e57600080fd5b506100bd6004803603810190808035906020019092919050505061024d565b604051808273ffffffffffffffffffffffffffffffffffffffff1673ffffffffffffffffffffffffffffffffffffffff16815260200191505060405180910390f35b34801561010b57600080fd5b5061012a60048036038101908080359060200190929190505050610296565b604051808373ffffffffffffffffffffffffffffffffffffffff1673ffffffffffffffffffffffffffffffffffffffff16815260200180602001828103825283818151815260200191508051906020019080838360005b8381101561019c578082015181840152602081019050610181565b50505050905090810190601f1680156101c95780820380516001836020036101000a031916815260200191505b50935050505060405180910390f35b3480156101e457600080fd5b5061023f600480360381019080803590602001908201803590602001908080601f016020809104026020016040519081016040528093929190818152602001838380828437820191505050505050919291929050505061041b565b005b60008080549050905090565b6000808281548110151561025d57fe5b906000526020600020906003020160010160009054906101000a900473ffffffffffffffffffffffffffffffffffffffff169050919050565b600060606102a261052f565b83806000111580156102b8575060008054905081105b15156102c357600080fd5b846000805490501115156102d657600080fd5b6000858154811015156102e557fe5b906000526020600020906003020160606040519081016040529081600082015481526020016001820160009054906101000a900473ffffffffffffffffffffffffffffffffffffffff1673ffffffffffffffffffffffffffffffffffffffff1673ffffffffffffffffffffffffffffffffffffffff168152602001600282018054600181600116156101000203166002900480601f0160208091040260200160405190810160405280929190818152602001828054600181600116156101000203166002900480156103f85780601f106103cd576101008083540402835291602001916103f8565b820191906000526020600020905b8154815290600101906020018083116103db57829003601f168201915b505050505081525050915081602001518260400151809050935093505050915091565b600060606040519081016040528060008054905081526020013373ffffffffffffffffffffffffffffffffffffffff16815260200183815250908060018154018082558091505090600182039060005260206000209060030201600090919290919091506000820151816000015560208201518160010160006101000a81548173ffffffffffffffffffffffffffffffffffffffff021916908373ffffffffffffffffffffffffffffffffffffffff16021790555060408201518160020190805190602001906104ec929190610567565b505050507f36c4915a642e07267838a17bfeb9ff08b076265638fc0e54e79e5af6929ac4c46000805490506040518082815260200191505060405180910390a150565b60606040519081016040528060008152602001600073ffffffffffffffffffffffffffffffffffffffff168152602001606081525090565b828054600181600116156101000203166002900490600052602060002090601f016020900481019282601f106105a857805160ff19168380011785556105d6565b828001600101855582156105d6579182015b828111156105d55782518255916020019190600101906105ba565b5b5090506105e391906105e7565b5090565b61060991905b808211156106055760008160009055506001016105ed565b5090565b905600a165627a7a72305820494edfa587fc108550864034b7672f42b9ad50ae13cfbda7f5ebf4d8c5f9cfc70029",
  "source": "// SPDX-License-Identifier: MIT\r\npragma solidity >=0.4.22 <0.9.0;\r\ncontract articleManager{\r\n    struct Article{\r\n        uint256 serialNumber;\r\n        address owner;\r\n        string html;\r\n    }\r\n    \r\n    Article[] private articles;\r\n    \r\n    event articleUploaded(uint256 serialNumber);\r\n\r\n    modifier isRightSerial(uint _serialNumber){\r\n        require(0<=_serialNumber&&_serialNumber<articles.length);\r\n        _;\r\n    }\r\n\r\n    function uploadArticle(string memory _html)public{\r\n        articles.push(Article(articles.length,msg.sender,_html));\r\n        \r\n        emit articleUploaded(articles.length);\r\n    }\r\n    \r\n    function getArticle(uint256 _serialNumber)public view isRightSerial(_serialNumber)\r\n    returns(address owner,string memory html)\r\n    {\r\n        require(articles.length>_serialNumber);\r\n        Article memory _article=articles[_serialNumber];\r\n        return (_article.owner,_article.html);\r\n    }\r\n    function getArticlesCount()public view returns(uint){\r\n        return articles.length;\r\n    }\r\n    function getArticleOwner(uint256 _serialNumber) public view returns(address){\r\n        return articles[_serialNumber].owner;\r\n    }\r\n}",
  "sourcePath": "C:\\Users\\LG\\Desktop\\KlayArticle\\contracts\\ArticleManager.sol",
  "compiler": {
    "name": "solc",
    "version": "0.4.25+commit.59dbf8f1.Emscripten.clang"
  },
  "schemaVersion": "2.0.2",
  "updatedAt": "2021-02-19T07:47:16.113Z"
}